{
  "_format": "hh-sol-artifact-1",
  "contractName": "MaliciousContract",
  "sourceName": "contracts/protocol/uridium/MaliciousContract.sol",
  "abi": [
    {
      "inputs": [
        {
          "internalType": "address",
          "name": "_token",
          "type": "address"
        }
      ],
      "stateMutability": "nonpayable",
      "type": "constructor"
    },
    {
      "inputs": [
        {
          "internalType": "address",
          "name": "recipient",
          "type": "address"
        },
        {
          "internalType": "uint256",
          "name": "amount",
          "type": "uint256"
        }
      ],
      "name": "attack",
      "outputs": [],
      "stateMutability": "nonpayable",
      "type": "function"
    },
    {
      "inputs": [],
      "name": "attackCount",
      "outputs": [
        {
          "internalType": "uint256",
          "name": "",
          "type": "uint256"
        }
      ],
      "stateMutability": "view",
      "type": "function"
    },
    {
      "inputs": [],
      "name": "token",
      "outputs": [
        {
          "internalType": "contract IERC20",
          "name": "",
          "type": "address"
        }
      ],
      "stateMutability": "view",
      "type": "function"
    }
  ],
  "bytecode": "0x6080604052600060015534801561001557600080fd5b506040516107de3803806107de833981810160405281019061003791906100e0565b806000806101000a81548173ffffffffffffffffffffffffffffffffffffffff021916908373ffffffffffffffffffffffffffffffffffffffff1602179055505061010d565b600080fd5b600073ffffffffffffffffffffffffffffffffffffffff82169050919050565b60006100ad82610082565b9050919050565b6100bd816100a2565b81146100c857600080fd5b50565b6000815190506100da816100b4565b92915050565b6000602082840312156100f6576100f561007d565b5b6000610104848285016100cb565b91505092915050565b6106c28061011c6000396000f3fe608060405234801561001057600080fd5b50600436106100415760003560e01c8063407c28211461004657806352fba25c14610064578063fc0c546a14610080575b600080fd5b61004e61009e565b60405161005b919061034b565b60405180910390f35b61007e600480360381019061007991906103f5565b6100a4565b005b61008861030e565b6040516100959190610494565b60405180910390f35b60015481565b6005600154101561030a57600160008154809291906100c2906104de565b919050555060008054906101000a900473ffffffffffffffffffffffffffffffffffffffff1673ffffffffffffffffffffffffffffffffffffffff1663095ea7b330836040518363ffffffff1660e01b8152600401610122929190610536565b602060405180830381600087803b15801561013c57600080fd5b505af1158015610150573d6000803e3d6000fd5b505050506040513d601f19601f820116820180604052508101906101749190610597565b5060008060009054906101000a900473ffffffffffffffffffffffffffffffffffffffff1673ffffffffffffffffffffffffffffffffffffffff163384846040516024016101c4939291906105c4565b6040516020818303038152906040527f23b872dd000000000000000000000000000000000000000000000000000000007bffffffffffffffffffffffffffffffffffffffffffffffffffffffff19166020820180517bffffffffffffffffffffffffffffffffffffffffffffffffffffffff838183161783525050505060405161024e9190610675565b6000604051808303816000865af19150503d806000811461028b576040519150601f19603f3d011682016040523d82523d6000602084013e610290565b606091505b505090508015610308573073ffffffffffffffffffffffffffffffffffffffff166352fba25c84846040518363ffffffff1660e01b81526004016102d5929190610536565b600060405180830381600087803b1580156102ef57600080fd5b505af1158015610303573d6000803e3d6000fd5b505050505b505b5050565b60008054906101000a900473ffffffffffffffffffffffffffffffffffffffff1681565b6000819050919050565b61034581610332565b82525050565b6000602082019050610360600083018461033c565b92915050565b600080fd5b600073ffffffffffffffffffffffffffffffffffffffff82169050919050565b60006103968261036b565b9050919050565b6103a68161038b565b81146103b157600080fd5b50565b6000813590506103c38161039d565b92915050565b6103d281610332565b81146103dd57600080fd5b50565b6000813590506103ef816103c9565b92915050565b6000806040838503121561040c5761040b610366565b5b600061041a858286016103b4565b925050602061042b858286016103e0565b9150509250929050565b6000819050919050565b600061045a6104556104508461036b565b610435565b61036b565b9050919050565b600061046c8261043f565b9050919050565b600061047e82610461565b9050919050565b61048e81610473565b82525050565b60006020820190506104a96000830184610485565b92915050565b7f4e487b7100000000000000000000000000000000000000000000000000000000600052601160045260246000fd5b60006104e982610332565b91507fffffffffffffffffffffffffffffffffffffffffffffffffffffffffffffffff82141561051c5761051b6104af565b5b600182019050919050565b6105308161038b565b82525050565b600060408201905061054b6000830185610527565b610558602083018461033c565b9392505050565b60008115159050919050565b6105748161055f565b811461057f57600080fd5b50565b6000815190506105918161056b565b92915050565b6000602082840312156105ad576105ac610366565b5b60006105bb84828501610582565b91505092915050565b60006060820190506105d96000830186610527565b6105e66020830185610527565b6105f3604083018461033c565b949350505050565b600081519050919050565b600081905092915050565b60005b8381101561062f578082015181840152602081019050610614565b8381111561063e576000848401525b50505050565b600061064f826105fb565b6106598185610606565b9350610669818560208601610611565b80840191505092915050565b60006106818284610644565b91508190509291505056fea2646970667358221220826f574789bce99ad0871f9f7c345c54700bde4b9267d9ee03050a44779fd68e64736f6c63430008090033",
  "linkReferences": {},
  "deployedLinkReferences": {}
}